:1001000031FF00CDB401063B213C011100007E12FD
:10011000231305C20E01212F01224600214500367E
:10012000807EB7C221013A4300FE80D200007601F2
:100130000000000D000A00F643004000C303F680F3
:1001400000C306E8000000000000000000000000FE
:1001700000000000C300000D0A43502F4D20322E16
:100180003220426F6F745374726170206C6F6164BF
:1001900065720D0A4275696C6420312E3130202061
:1001A0003A20312E30202D20312E31202D20312E9D
:1001B000320D0A002177017EB7C8D3EC23C3B70103
:00000001FF
